{
  "contractName": "CAVDataManagementSystem",
  "abi": [
    {
      "constant": true,
      "inputs": [],
      "name": "name",
      "outputs": [
        {
          "name": "",
          "type": "string"
        }
      ],
      "payable": false,
      "stateMutability": "view",
      "type": "function"
    },
    {
      "constant": true,
      "inputs": [],
      "name": "vehicleCount",
      "outputs": [
        {
          "name": "",
          "type": "uint256"
        }
      ],
      "payable": false,
      "stateMutability": "view",
      "type": "function"
    },
    {
      "constant": true,
      "inputs": [
        {
          "name": "",
          "type": "uint256"
        }
      ],
      "name": "vehicles",
      "outputs": [
        {
          "name": "id",
          "type": "uint256"
        },
        {
          "name": "dataid",
          "type": "uint256"
        },
        {
          "name": "timestamp",
          "type": "uint256"
        },
        {
          "name": "accx",
          "type": "uint256"
        },
        {
          "name": "accy",
          "type": "uint256"
        },
        {
          "name": "accz",
          "type": "uint256"
        },
        {
          "name": "rollx",
          "type": "uint256"
        },
        {
          "name": "yawy",
          "type": "uint256"
        },
        {
          "name": "pitchz",
          "type": "uint256"
        },
        {
          "name": "latitude",
          "type": "uint256"
        },
        {
          "name": "longitude",
          "type": "uint256"
        },
        {
          "name": "price",
          "type": "uint256"
        },
        {
          "name": "owner",
          "type": "address"
        }
      ],
      "payable": false,
      "stateMutability": "view",
      "type": "function"
    },
    {
      "inputs": [],
      "payable": false,
      "stateMutability": "nonpayable",
      "type": "constructor"
    },
    {
      "anonymous": false,
      "inputs": [
        {
          "indexed": false,
          "name": "id",
          "type": "uint256"
        },
        {
          "indexed": false,
          "name": "dataid",
          "type": "uint256"
        },
        {
          "indexed": false,
          "name": "timestamp",
          "type": "uint256"
        },
        {
          "indexed": false,
          "name": "accx",
          "type": "uint256"
        },
        {
          "indexed": false,
          "name": "accy",
          "type": "uint256"
        },
        {
          "indexed": false,
          "name": "accz",
          "type": "uint256"
        },
        {
          "indexed": false,
          "name": "rollx",
          "type": "uint256"
        },
        {
          "indexed": false,
          "name": "yawy",
          "type": "uint256"
        },
        {
          "indexed": false,
          "name": "pitchz",
          "type": "uint256"
        },
        {
          "indexed": false,
          "name": "latitude",
          "type": "uint256"
        },
        {
          "indexed": false,
          "name": "longitude",
          "type": "uint256"
        },
        {
          "indexed": false,
          "name": "price",
          "type": "uint256"
        },
        {
          "indexed": false,
          "name": "owner",
          "type": "address"
        }
      ],
      "name": "VehicleCreated",
      "type": "event"
    },
    {
      "anonymous": false,
      "inputs": [
        {
          "indexed": false,
          "name": "id",
          "type": "uint256"
        },
        {
          "indexed": false,
          "name": "dataid",
          "type": "uint256"
        },
        {
          "indexed": false,
          "name": "timestamp",
          "type": "uint256"
        },
        {
          "indexed": false,
          "name": "accx",
          "type": "uint256"
        },
        {
          "indexed": false,
          "name": "accy",
          "type": "uint256"
        },
        {
          "indexed": false,
          "name": "accz",
          "type": "uint256"
        },
        {
          "indexed": false,
          "name": "rollx",
          "type": "uint256"
        },
        {
          "indexed": false,
          "name": "yawy",
          "type": "uint256"
        },
        {
          "indexed": false,
          "name": "pitchz",
          "type": "uint256"
        },
        {
          "indexed": false,
          "name": "latitude",
          "type": "uint256"
        },
        {
          "indexed": false,
          "name": "longitude",
          "type": "uint256"
        },
        {
          "indexed": false,
          "name": "price",
          "type": "uint256"
        },
        {
          "indexed": false,
          "name": "owner",
          "type": "address"
        }
      ],
      "name": "VehiclePurchased",
      "type": "event"
    },
    {
      "constant": false,
      "inputs": [
        {
          "name": "_dataid",
          "type": "uint256"
        },
        {
          "name": "_timestamp",
          "type": "uint256"
        },
        {
          "name": "_accx",
          "type": "uint256"
        },
        {
          "name": "_accy",
          "type": "uint256"
        },
        {
          "name": "_accz",
          "type": "uint256"
        },
        {
          "name": "_rollx",
          "type": "uint256"
        },
        {
          "name": "_yawy",
          "type": "uint256"
        },
        {
          "name": "_pitchz",
          "type": "uint256"
        },
        {
          "name": "_latitude",
          "type": "uint256"
        },
        {
          "name": "_longitude",
          "type": "uint256"
        },
        {
          "name": "_price",
          "type": "uint256"
        }
      ],
      "name": "createVehicle",
      "outputs": [],
      "payable": false,
      "stateMutability": "nonpayable",
      "type": "function"
    },
    {
      "constant": false,
      "inputs": [
        {
          "name": "_id",
          "type": "uint256"
        }
      ],
      "name": "purchaseVehicle",
      "outputs": [],
      "payable": true,
      "stateMutability": "payable",
      "type": "function"
    }
  ],
  "bytecode": "0x6080604052600060015534801561001557600080fd5b506040805190810160405280601a81526020017f4341562044617461204d616e6167656d656e742053797374656d00000000000081525060009080519060200190610061929190610067565b5061010c565b828054600181600116156101000203166002900490600052602060002090601f016020900481019282601f106100a857805160ff19168380011785556100d6565b828001600101855582156100d6579182015b828111156100d55782518255916020019190600101906100ba565b5b5090506100e391906100e7565b5090565b61010991905b808211156101055760008160009055506001016100ed565b5090565b90565b610a718061011b6000396000f3fe60806040526004361061006d576000357c0100000000000000000000000000000000000000000000000000000000900463ffffffff16806302ffbc541461007257806306fdde03146100a05780639970493714610130578063b1b787a01461015b578063b8ba95fa146101fb575b600080fd5b61009e6004803603602081101561008857600080fd5b81019080803590602001909291905050506102ca565b005b3480156100ac57600080fd5b506100b561065c565b6040518080602001828103825283818151815260200191508051906020019080838360005b838110156100f55780820151818401526020810190506100da565b50505050905090810190601f1680156101225780820380516001836020036101000a031916815260200191505b509250505060405180910390f35b34801561013c57600080fd5b506101456106fa565b6040518082815260200191505060405180910390f35b34801561016757600080fd5b506101f9600480360361016081101561017f57600080fd5b810190808035906020019092919080359060200190929190803590602001909291908035906020019092919080359060200190929190803590602001909291908035906020019092919080359060200190929190803590602001909291908035906020019092919080359060200190929190505050610700565b005b34801561020757600080fd5b506102346004803603602081101561021e57600080fd5b8101908080359060200190929190505050610940565b604051808e81526020018d81526020018c81526020018b81526020018a81526020018981526020018881526020018781526020018681526020018581526020018481526020018381526020018273ffffffffffffffffffffffffffffffffffffffff1673ffffffffffffffffffffffffffffffffffffffff1681526020019d505050505050505050505050505060405180910390f35b6102d26109c6565b600260008381526020019081526020016000206101a0604051908101604052908160008201548152602001600182015481526020016002820154815260200160038201548152602001600482015481526020016005820154815260200160068201548152602001600782015481526020016008820154815260200160098201548152602001600a8201548152602001600b8201548152602001600c820160009054906101000a900473ffffffffffffffffffffffffffffffffffffffff1673ffffffffffffffffffffffffffffffffffffffff1673ffffffffffffffffffffffffffffffffffffffff1681525050905060008161018001519050600082600001511180156103e65750600154826000015111155b15156103f157600080fd5b816101600151341015151561040557600080fd5b3373ffffffffffffffffffffffffffffffffffffffff168173ffffffffffffffffffffffffffffffffffffffff161415151561044057600080fd5b8160026000858152602001908152602001600020600082015181600001556020820151816001015560408201518160020155606082015181600301556080820151816004015560a0820151816005015560c0820151816006015560e082015181600701556101008201518160080155610120820151816009015561014082015181600a015561016082015181600b015561018082015181600c0160006101000a81548173ffffffffffffffffffffffffffffffffffffffff021916908373ffffffffffffffffffffffffffffffffffffffff1602179055509050508073ffffffffffffffffffffffffffffffffffffffff166108fc349081150290604051600060405180830381858888f19350505050158015610561573d6000803e3d6000fd5b507fde84e6e6e7fcef721200ab8a8acbd8c4d3f497450831dfe3d3e6a79ea22fe8ac60015483602001518460400151856060015186608001518760a001518860c001518960e001518a61010001518b61012001518c61014001518d610160015133604051808e81526020018d81526020018c81526020018b81526020018a81526020018981526020018881526020018781526020018681526020018581526020018481526020018381526020018273ffffffffffffffffffffffffffffffffffffffff1673ffffffffffffffffffffffffffffffffffffffff1681526020019d505050505050505050505050505060405180910390a1505050565b60008054600181600116156101000203166002900480601f0160208091040260200160405190810160405280929190818152602001828054600181600116156101000203166002900480156106f25780601f106106c7576101008083540402835291602001916106f2565b820191906000526020600020905b8154815290600101906020018083116106d557829003601f168201915b505050505081565b60015481565b60008111151561070f57600080fd5b6001600081548092919060010191905055506101a06040519081016040528060015481526020018c81526020018b81526020018a81526020018981526020018881526020018781526020018681526020018581526020018481526020018381526020018281526020013373ffffffffffffffffffffffffffffffffffffffff16815250600260006001548152602001908152602001600020600082015181600001556020820151816001015560408201518160020155606082015181600301556080820151816004015560a0820151816005015560c0820151816006015560e082015181600701556101008201518160080155610120820151816009015561014082015181600a015561016082015181600b015561018082015181600c0160006101000a81548173ffffffffffffffffffffffffffffffffffffffff021916908373ffffffffffffffffffffffffffffffffffffffff1602179055509050507fd2e8a58b141d861121ef4ab1e4b4410dac864fff1c917b2bee9a2c6cced61d466001548c8c8c8c8c8c8c8c8c8c8c33604051808e81526020018d81526020018c81526020018b81526020018a81526020018981526020018881526020018781526020018681526020018581526020018481526020018381526020018273ffffffffffffffffffffffffffffffffffffffff1673ffffffffffffffffffffffffffffffffffffffff1681526020019d505050505050505050505050505060405180910390a15050505050505050505050565b600260205280600052604060002060009150905080600001549080600101549080600201549080600301549080600401549080600501549080600601549080600701549080600801549080600901549080600a01549080600b01549080600c0160009054906101000a900473ffffffffffffffffffffffffffffffffffffffff1690508d565b6101a060405190810160405280600081526020016000815260200160008152602001600081526020016000815260200160008152602001600081526020016000815260200160008152602001600081526020016000815260200160008152602001600073ffffffffffffffffffffffffffffffffffffffff168152509056fea165627a7a72305820d73441dd0a15402f113fbd0ff99346ec090efbf689c357809063dd319fd840c20029",
  "source": "//SPDX-License-Identifier: MIT\r\n\r\npragma solidity ^0.5.0;\r\n\r\ncontract CAVDataManagementSystem {\r\n    string public name;\r\n    uint public vehicleCount = 0;\r\n    mapping(uint => Vehicle) public vehicles;\r\n\r\n    struct Vehicle{\r\n        uint id;\r\n        uint dataid;\r\n        uint timestamp; \r\n        uint accx;\r\n        uint accy;\r\n        uint accz;\r\n        uint rollx;\r\n        uint yawy;\r\n        uint pitchz;\r\n        uint latitude;\r\n        uint longitude;\r\n        uint price;\r\n        address payable owner;       \r\n    }\r\n\r\n    event VehicleCreated(\r\n         uint id,\r\n        uint dataid,\r\n        uint timestamp, \r\n        uint accx,\r\n        uint accy,\r\n        uint accz,\r\n        uint rollx,\r\n        uint yawy,\r\n        uint pitchz,\r\n        uint latitude,\r\n        uint longitude,\r\n        uint price,\r\n        address payable owner \r\n    );  \r\n\r\n    event VehiclePurchased(\r\n        uint id,\r\n        uint dataid,\r\n        uint timestamp, \r\n        uint accx,\r\n        uint accy,\r\n        uint accz,\r\n        uint rollx,\r\n        uint yawy,\r\n        uint pitchz,\r\n        uint latitude,\r\n        uint longitude,\r\n        uint price,\r\n        address payable owner \r\n    );\r\n\r\n    constructor() public {\r\n        name = \"CAV Data Management System\";\r\n    }\r\n\r\n    function createVehicle( uint _dataid,uint _timestamp,uint _accx,uint _accy,uint _accz,uint _rollx,uint _yawy,uint _pitchz,uint _latitude, uint _longitude, uint _price) public {\r\n  \r\n        // Require a valid price\r\n        require(_price > 0);\r\n        // Increment vehicle count\r\n        vehicleCount ++;\r\n        // Create the vehicle\r\n        vehicles[vehicleCount] = Vehicle(vehicleCount, _dataid,_timestamp, _accx, _accy, _accz,_rollx, _yawy, _pitchz, _latitude,  _longitude,_price, msg.sender);\r\n        // Trigger an event\r\n        emit VehicleCreated(vehicleCount, _dataid,_timestamp, _accx, _accy, _accz,_rollx, _yawy, _pitchz, _latitude,  _longitude,_price, msg.sender);\r\n    }\r\n\r\n    function purchaseVehicle(uint _id) public payable {\r\n        // Fetch the vehicle\r\n        Vehicle memory _vehicle = vehicles[_id];\r\n        // Fetch the owner\r\n        address payable _seller = _vehicle.owner;\r\n        // Make sure the vehicle has a valid id\r\n        require(_vehicle.id > 0 && _vehicle.id <= vehicleCount);\r\n        // Require that there is enough Ether in the transaction\r\n        require(msg.value >= _vehicle.price);\r\n        // Require that the buyer is not the seller\r\n        require(_seller != msg.sender);         \r\n        // Update the vehicle\r\n        vehicles[_id] = _vehicle;\r\n        // Pay the seller by sending them Ether\r\n        address(_seller).transfer(msg.value);\r\n        // Trigger an event\r\n        emit VehiclePurchased(vehicleCount, _vehicle.dataid,_vehicle.timestamp, _vehicle.accx, _vehicle.accy, _vehicle.accz,_vehicle.rollx, _vehicle.yawy, _vehicle.pitchz, _vehicle.latitude,  _vehicle.longitude,_vehicle.price, msg.sender);\r\n    }\r\n}\r\n",
  "sourcePath": "D:/College/Semester 7/Studies/BTP/Final Pawan Frontend/Blockchain-based-Autonomous-Vehicle-Network-Security-Platform/src/contracts/AutonomousVehicleSecurity.sol",
  "compiler": {
    "name": "solc",
    "version": "0.5.0+commit.1d4f565a.Emscripten.clang"
  },
  "schemaVersion": "3.0.2",
  "updatedAt": "2022-12-10T22:29:14.834Z",
  "devdoc": {
    "methods": {}
  },
  "userdoc": {
    "methods": {}
  }
}